{
  "contractName": "FlashBorrow",
  "abi": [
    {
      "inputs": [
        {
          "internalType": "address",
          "name": "_sushiswapFactoryAddress",
          "type": "address"
        },
        {
          "internalType": "address",
          "name": "_sushiswapRouterAddress",
          "type": "address"
        }
      ],
      "stateMutability": "nonpayable",
      "type": "constructor"
    },
    {
      "inputs": [],
      "name": "deadline",
      "outputs": [
        {
          "internalType": "uint256",
          "name": "",
          "type": "uint256"
        }
      ],
      "stateMutability": "view",
      "type": "function",
      "constant": true
    },
    {
      "inputs": [],
      "name": "flashBorrowPoolAddress",
      "outputs": [
        {
          "internalType": "address",
          "name": "",
          "type": "address"
        }
      ],
      "stateMutability": "view",
      "type": "function",
      "constant": true
    },
    {
      "inputs": [],
      "name": "sushiswapFactoryAddress",
      "outputs": [
        {
          "internalType": "address",
          "name": "",
          "type": "address"
        }
      ],
      "stateMutability": "view",
      "type": "function",
      "constant": true
    },
    {
      "inputs": [],
      "name": "sushiswapRouterAddress",
      "outputs": [
        {
          "internalType": "address",
          "name": "",
          "type": "address"
        }
      ],
      "stateMutability": "view",
      "type": "function",
      "constant": true
    },
    {
      "inputs": [
        {
          "internalType": "uint256",
          "name": "",
          "type": "uint256"
        }
      ],
      "name": "swapPath",
      "outputs": [
        {
          "internalType": "address",
          "name": "",
          "type": "address"
        }
      ],
      "stateMutability": "view",
      "type": "function",
      "constant": true
    },
    {
      "inputs": [],
      "name": "swapRouter",
      "outputs": [
        {
          "internalType": "contract IUniswapV2Router",
          "name": "",
          "type": "address"
        }
      ],
      "stateMutability": "view",
      "type": "function",
      "constant": true
    },
    {
      "inputs": [
        {
          "internalType": "address",
          "name": "_flashBorrowPoolAddress",
          "type": "address"
        },
        {
          "internalType": "address",
          "name": "flashBorrowTokenAddress",
          "type": "address"
        },
        {
          "internalType": "uint256",
          "name": "flashBorrowTokenAmount",
          "type": "uint256"
        },
        {
          "internalType": "address[]",
          "name": "_swapPath",
          "type": "address[]"
        },
        {
          "internalType": "address",
          "name": "swapRouterAddress",
          "type": "address"
        }
      ],
      "name": "execute",
      "outputs": [],
      "stateMutability": "nonpayable",
      "type": "function"
    },
    {
      "inputs": [
        {
          "internalType": "address",
          "name": "_sender",
          "type": "address"
        },
        {
          "internalType": "uint256",
          "name": "_amount0",
          "type": "uint256"
        },
        {
          "internalType": "uint256",
          "name": "_amount1",
          "type": "uint256"
        },
        {
          "internalType": "bytes",
          "name": "_data",
          "type": "bytes"
        }
      ],
      "name": "uniswapV2Call",
      "outputs": [],
      "stateMutability": "nonpayable",
      "type": "function"
    }
  ],
  "bytecode": "0x60806040523480156200001157600080fd5b50604051620017c7380380620017c783398181016040528101906200003791906200012a565b816000806101000a81548173ffffffffffffffffffffffffffffffffffffffff021916908373ffffffffffffffffffffffffffffffffffffffff16021790555080600160006101000a81548173ffffffffffffffffffffffffffffffffffffffff021916908373ffffffffffffffffffffffffffffffffffffffff160217905550505062000171565b600080fd5b600073ffffffffffffffffffffffffffffffffffffffff82169050919050565b6000620000f282620000c5565b9050919050565b6200010481620000e5565b81146200011057600080fd5b50565b6000815190506200012481620000f9565b92915050565b60008060408385031215620001445762000143620000c0565b5b6000620001548582860162000113565b9250506020620001678582860162000113565b9150509250929050565b61164680620001816000396000f3fe608060405234801561001057600080fd5b50600436106100885760003560e01c806329dcb0cf1161005b57806329dcb0cf1461011357806355a31dd81461013157806389513e2e1461014f578063c31c9c071461016d57610088565b806310d1e85c1461008d578063163fdc84146100a957806319d0a9a2146100c557806324cc0766146100e3575b600080fd5b6100a760048036038101906100a29190610dc6565b61018b565b005b6100c360048036038101906100be9190610ea4565b6107e3565b005b6100cd610b22565b6040516100da9190610f4d565b60405180910390f35b6100fd60048036038101906100f89190610f68565b610b48565b60405161010a9190610f4d565b60405180910390f35b61011b610b87565b6040516101289190610fa4565b60405180910390f35b610139610b8c565b6040516101469190610f4d565b60405180910390f35b610157610bb0565b6040516101649190610f4d565b60405180910390f35b610175610bd6565b604051610182919061101e565b60405180910390f35b60003373ffffffffffffffffffffffffffffffffffffffff16630dfe16816040518163ffffffff1660e01b8152600401602060405180830381865afa1580156101d8573d6000803e3d6000fd5b505050506040513d601f19601f820116820180604052508101906101fc919061104e565b905060003373ffffffffffffffffffffffffffffffffffffffff1663d21220a76040518163ffffffff1660e01b8152600401602060405180830381865afa15801561024b573d6000803e3d6000fd5b505050506040513d601f19601f8201168201806040525081019061026f919061104e565b9050600080600267ffffffffffffffff81111561028f5761028e61107b565b5b6040519080825280602002602001820160405280156102bd5781602001602082028036833780820191505090505b509050600088111561036f5787915082816000815181106102e1576102e06110aa565b5b602002602001019073ffffffffffffffffffffffffffffffffffffffff16908173ffffffffffffffffffffffffffffffffffffffff168152505083816001815181106103305761032f6110aa565b5b602002602001019073ffffffffffffffffffffffffffffffffffffffff16908173ffffffffffffffffffffffffffffffffffffffff1681525050610411565b8691508381600081518110610387576103866110aa565b5b602002602001019073ffffffffffffffffffffffffffffffffffffffff16908173ffffffffffffffffffffffffffffffffffffffff168152505082816001815181106103d6576103d56110aa565b5b602002602001019073ffffffffffffffffffffffffffffffffffffffff16908173ffffffffffffffffffffffffffffffffffffffff16815250505b6000600460009054906101000a900473ffffffffffffffffffffffffffffffffffffffff1673ffffffffffffffffffffffffffffffffffffffff16631f00ca7484846040518363ffffffff1660e01b8152600401610470929190611197565b600060405180830381865afa15801561048d573d6000803e3d6000fd5b505050506040513d6000823e3d601f19601f820116820180604052508101906104b691906112fc565b6000815181106104c9576104c86110aa565b5b602002602001015190506000600460009054906101000a900473ffffffffffffffffffffffffffffffffffffffff1673ffffffffffffffffffffffffffffffffffffffff166338ed173985848630603c426105249190611374565b6040518663ffffffff1660e01b81526004016105449594939291906113ca565b6000604051808303816000875af1158015610563573d6000803e3d6000fd5b505050506040513d6000823e3d601f19601f8201168201806040525081019061058c91906112fc565b6001845161059a9190611424565b815181106105ab576105aa6110aa565b5b6020026020010151905060008a11156106cc578473ffffffffffffffffffffffffffffffffffffffff1663a9059cbb33846040518363ffffffff1660e01b81526004016105f9929190611458565b6020604051808303816000875af1158015610618573d6000803e3d6000fd5b505050506040513d601f19601f8201168201806040525081019061063c91906114b9565b508473ffffffffffffffffffffffffffffffffffffffff1663a9059cbb3284846106669190611424565b6040518363ffffffff1660e01b8152600401610683929190611458565b6020604051808303816000875af11580156106a2573d6000803e3d6000fd5b505050506040513d601f19601f820116820180604052508101906106c691906114b9565b506107d6565b8573ffffffffffffffffffffffffffffffffffffffff1663a9059cbb33846040518363ffffffff1660e01b8152600401610707929190611458565b6020604051808303816000875af1158015610726573d6000803e3d6000fd5b505050506040513d601f19601f8201168201806040525081019061074a91906114b9565b508573ffffffffffffffffffffffffffffffffffffffff1663a9059cbb3284846107749190611424565b6040518363ffffffff1660e01b8152600401610791929190611458565b6020604051808303816000875af11580156107b0573d6000803e3d6000fd5b505050506040513d601f19601f820116820180604052508101906107d491906114b9565b505b5050505050505050505050565b8282600391906107f4929190610bfc565b5085600260006101000a81548173ffffffffffffffffffffffffffffffffffffffff021916908373ffffffffffffffffffffffffffffffffffffffff16021790555080600460006101000a81548173ffffffffffffffffffffffffffffffffffffffff021916908373ffffffffffffffffffffffffffffffffffffffff1602179055506000600260009054906101000a900473ffffffffffffffffffffffffffffffffffffffff1673ffffffffffffffffffffffffffffffffffffffff1663dd62ed3e30846040518363ffffffff1660e01b81526004016108d69291906114e6565b602060405180830381865afa1580156108f3573d6000803e3d6000fd5b505050506040513d601f19601f82011682018060405250810190610917919061150f565b9050848110156109c1578573ffffffffffffffffffffffffffffffffffffffff1663095ea7b3837fffffffffffffffffffffffffffffffffffffffffffffffffffffffffffffffff6040518363ffffffff1660e01b815260040161097c929190611458565b6020604051808303816000875af115801561099b573d6000803e3d6000fd5b505050506040513d601f19601f820116820180604052508101906109bf91906114b9565b505b6000808873ffffffffffffffffffffffffffffffffffffffff16630dfe16816040518163ffffffff1660e01b8152600401602060405180830381865afa158015610a0f573d6000803e3d6000fd5b505050506040513d601f19601f82011682018060405250810190610a33919061104e565b73ffffffffffffffffffffffffffffffffffffffff168873ffffffffffffffffffffffffffffffffffffffff1603610a6d57869150610a71565b8690505b8873ffffffffffffffffffffffffffffffffffffffff1663022c0d9f8383306040518060400160405280600581526020017f666c6173680000000000000000000000000000000000000000000000000000008152506040518563ffffffff1660e01b8152600401610ae594939291906115c4565b600060405180830381600087803b158015610aff57600080fd5b505af1158015610b13573d6000803e3d6000fd5b50505050505050505050505050565b600160009054906101000a900473ffffffffffffffffffffffffffffffffffffffff1681565b60038181548110610b5857600080fd5b906000526020600020016000915054906101000a900473ffffffffffffffffffffffffffffffffffffffff1681565b603c81565b60008054906101000a900473ffffffffffffffffffffffffffffffffffffffff1681565b600260009054906101000a900473ffffffffffffffffffffffffffffffffffffffff1681565b600460009054906101000a900473ffffffffffffffffffffffffffffffffffffffff1681565b828054828255906000526020600020908101928215610c8b579160200282015b82811115610c8a57823573ffffffffffffffffffffffffffffffffffffffff168260006101000a81548173ffffffffffffffffffffffffffffffffffffffff021916908373ffffffffffffffffffffffffffffffffffffffff16021790555091602001919060010190610c1c565b5b509050610c989190610c9c565b5090565b5b80821115610cb5576000816000905550600101610c9d565b5090565b6000604051905090565b600080fd5b600080fd5b600073ffffffffffffffffffffffffffffffffffffffff82169050919050565b6000610cf882610ccd565b9050919050565b610d0881610ced565b8114610d1357600080fd5b50565b600081359050610d2581610cff565b92915050565b6000819050919050565b610d3e81610d2b565b8114610d4957600080fd5b50565b600081359050610d5b81610d35565b92915050565b600080fd5b600080fd5b600080fd5b60008083601f840112610d8657610d85610d61565b5b8235905067ffffffffffffffff811115610da357610da2610d66565b5b602083019150836001820283011115610dbf57610dbe610d6b565b5b9250929050565b600080600080600060808688031215610de257610de1610cc3565b5b6000610df088828901610d16565b9550506020610e0188828901610d4c565b9450506040610e1288828901610d4c565b935050606086013567ffffffffffffffff811115610e3357610e32610cc8565b5b610e3f88828901610d70565b92509250509295509295909350565b60008083601f840112610e6457610e63610d61565b5b8235905067ffffffffffffffff811115610e8157610e80610d66565b5b602083019150836020820283011115610e9d57610e9c610d6b565b5b9250929050565b60008060008060008060a08789031215610ec157610ec0610cc3565b5b6000610ecf89828a01610d16565b9650506020610ee089828a01610d16565b9550506040610ef189828a01610d4c565b945050606087013567ffffffffffffffff811115610f1257610f11610cc8565b5b610f1e89828a01610e4e565b93509350506080610f3189828a01610d16565b9150509295509295509295565b610f4781610ced565b82525050565b6000602082019050610f626000830184610f3e565b92915050565b600060208284031215610f7e57610f7d610cc3565b5b6000610f8c84828501610d4c565b91505092915050565b610f9e81610d2b565b82525050565b6000602082019050610fb96000830184610f95565b92915050565b6000819050919050565b6000610fe4610fdf610fda84610ccd565b610fbf565b610ccd565b9050919050565b6000610ff682610fc9565b9050919050565b600061100882610feb565b9050919050565b61101881610ffd565b82525050565b6000602082019050611033600083018461100f565b92915050565b60008151905061104881610cff565b92915050565b60006020828403121561106457611063610cc3565b5b600061107284828501611039565b91505092915050565b7f4e487b7100000000000000000000000000000000000000000000000000000000600052604160045260246000fd5b7f4e487b7100000000000000000000000000000000000000000000000000000000600052603260045260246000fd5b600081519050919050565b600082825260208201905092915050565b6000819050602082019050919050565b61110e81610ced565b82525050565b60006111208383611105565b60208301905092915050565b6000602082019050919050565b6000611144826110d9565b61114e81856110e4565b9350611159836110f5565b8060005b8381101561118a5781516111718882611114565b975061117c8361112c565b92505060018101905061115d565b5085935050505092915050565b60006040820190506111ac6000830185610f95565b81810360208301526111be8184611139565b90509392505050565b6000601f19601f8301169050919050565b6111e1826111c7565b810181811067ffffffffffffffff82111715611200576111ff61107b565b5b80604052505050565b6000611213610cb9565b905061121f82826111d8565b919050565b600067ffffffffffffffff82111561123f5761123e61107b565b5b602082029050602081019050919050565b60008151905061125f81610d35565b92915050565b600061127861127384611224565b611209565b9050808382526020820190506020840283018581111561129b5761129a610d6b565b5b835b818110156112c457806112b08882611250565b84526020840193505060208101905061129d565b5050509392505050565b600082601f8301126112e3576112e2610d61565b5b81516112f3848260208601611265565b91505092915050565b60006020828403121561131257611311610cc3565b5b600082015167ffffffffffffffff8111156113305761132f610cc8565b5b61133c848285016112ce565b91505092915050565b7f4e487b7100000000000000000000000000000000000000000000000000000000600052601160045260246000fd5b600061137f82610d2b565b915061138a83610d2b565b9250827fffffffffffffffffffffffffffffffffffffffffffffffffffffffffffffffff038211156113bf576113be611345565b5b828201905092915050565b600060a0820190506113df6000830188610f95565b6113ec6020830187610f95565b81810360408301526113fe8186611139565b905061140d6060830185610f3e565b61141a6080830184610f95565b9695505050505050565b600061142f82610d2b565b915061143a83610d2b565b92508282101561144d5761144c611345565b5b828203905092915050565b600060408201905061146d6000830185610f3e565b61147a6020830184610f95565b9392505050565b60008115159050919050565b61149681611481565b81146114a157600080fd5b50565b6000815190506114b38161148d565b92915050565b6000602082840312156114cf576114ce610cc3565b5b60006114dd848285016114a4565b91505092915050565b60006040820190506114fb6000830185610f3e565b6115086020830184610f3e565b9392505050565b60006020828403121561152557611524610cc3565b5b600061153384828501611250565b91505092915050565b600081519050919050565b600082825260208201905092915050565b60005b8381101561157657808201518184015260208101905061155b565b83811115611585576000848401525b50505050565b60006115968261153c565b6115a08185611547565b93506115b0818560208601611558565b6115b9816111c7565b840191505092915050565b60006080820190506115d96000830187610f95565b6115e66020830186610f95565b6115f36040830185610f3e565b8181036060830152611605818461158b565b90509594505050505056fea264697066735822122071a8254e108ccc1b0b74273688cf6b60e9264ee11b16e67abf06f980464b378364736f6c634300080d0033",
  "immutableReferences": {},
  "source": "// SPDX-License-Identifier: MIT\n// Tells the Solidity compiler to compile only from v0.8.13 to v0.9.0\npragma solidity ^0.8.13;\n\nimport \"./interfaces/IUniswapV2Router.sol\";\nimport \"./interfaces/IERC20.sol\";\nimport \"./interfaces/IUniswapV2Router.sol\";\nimport \"./interfaces/IUniswapV2Callee.sol\";\nimport \"./interfaces/IUniswapV2Pair.sol\";\n\ncontract FlashBorrow {\n  uint256 public constant deadline = 60;\n  address public sushiswapFactoryAddress;\n  address public sushiswapRouterAddress;\n  address public flashBorrowPoolAddress;\n  address[] public swapPath;\n  IUniswapV2Router public swapRouter;\n  \n\n  constructor(address _sushiswapFactoryAddress, address _sushiswapRouterAddress) {\n    sushiswapFactoryAddress = _sushiswapFactoryAddress;\n    sushiswapRouterAddress = _sushiswapRouterAddress;\n  }\n\n  function execute(\n    address _flashBorrowPoolAddress,\n    address flashBorrowTokenAddress,\n    uint256 flashBorrowTokenAmount,\n    address[] calldata _swapPath,\n    address swapRouterAddress\n  ) external {\n    swapPath = _swapPath;\n    flashBorrowPoolAddress = _flashBorrowPoolAddress;\n    swapRouter = IUniswapV2Router(swapRouterAddress);\n    uint256 approval = IERC20(flashBorrowPoolAddress).allowance(address(this),swapRouterAddress);\n    if (approval < flashBorrowTokenAmount) {\n      IERC20(flashBorrowTokenAddress).approve(swapRouterAddress, type(uint256).max);\n    }\n    uint256 amount0 = 0;\n    uint256 amount1 = 0;\n    if (flashBorrowTokenAddress == IUniswapV2Pair(_flashBorrowPoolAddress).token0()) {\n      amount0 = flashBorrowTokenAmount;\n    } else {\n      amount1 = flashBorrowTokenAmount;\n    }\n\n    IUniswapV2Pair(_flashBorrowPoolAddress).swap(\n      amount0,\n      amount1,\n      address(this),\n      bytes(\"flash\")\n    );\n  }\n\n  function uniswapV2Call(\n    address _sender,\n    uint256 _amount0,\n    uint256 _amount1,\n    bytes calldata _data\n  ) external {\n    address token0 = IUniswapV2Pair(msg.sender).token0();\n    address token1 = IUniswapV2Pair(msg.sender).token1();\n    uint256 amountBorrow = 0;\n    address[] memory path = new address[](2);\n    if (_amount0 > 0) {\n      amountBorrow = _amount0;\n      path[0] = token1;\n      path[1] = token0;\n    } else {\n      amountBorrow = _amount1;\n      path[0] = token0;\n      path[1] = token1;\n    }\n    uint256 amountRepay = swapRouter.getAmountsIn(amountBorrow, path)[0];\n    uint256 amountReceivedAfterSwap = swapRouter.swapExactTokensForTokens(\n      amountBorrow,\n      amountRepay,\n      path,\n      address(this),\n      block.timestamp + deadline\n    )[path.length - 1];\n    if (_amount0 > 0) {\n      IERC20(token1).transfer(msg.sender, amountRepay);\n      IERC20(token1).transfer(\n        tx.origin,\n        amountReceivedAfterSwap - amountRepay\n      );\n    } else {\n      IERC20(token0).transfer(msg.sender, amountRepay);\n      IERC20(token0).transfer(\n        tx.origin,\n        amountReceivedAfterSwap - amountRepay\n      );\n    }\n  }\n\n}",
  "sourcePath": "/Users/ko.ol/dev/metacoin/truffle/contracts/FlashBorrow.sol",
  "compiler": {
    "name": "solc",
    "version": "0.8.13+commit.abaa5c0e.Emscripten.clang"
  },
  "schemaVersion": "3.4.14",
  "updatedAt": "2023-08-18T10:14:07.151Z",
  "networkType": "ethereum",
  "devdoc": {
    "kind": "dev",
    "methods": {},
    "version": 1
  },
  "userdoc": {
    "kind": "user",
    "methods": {},
    "version": 1
  }
}